{
  "_format": "hh3-artifact-1",
  "contractName": "MetaNFTAuctionV2",
  "sourceName": "contracts/MetaNFTAuctionV2.sol",
  "abi": [
    {
      "inputs": [],
      "stateMutability": "nonpayable",
      "type": "constructor"
    },
    {
      "inputs": [],
      "name": "InvalidInitialization",
      "type": "error"
    },
    {
      "inputs": [],
      "name": "NotInitializing",
      "type": "error"
    },
    {
      "anonymous": false,
      "inputs": [
        {
          "indexed": true,
          "internalType": "address",
          "name": "sender",
          "type": "address"
        },
        {
          "indexed": false,
          "internalType": "uint256",
          "name": "amount",
          "type": "uint256"
        },
        {
          "indexed": false,
          "internalType": "uint256",
          "name": "bidMethod",
          "type": "uint256"
        }
      ],
      "name": "Bid",
      "type": "event"
    },
    {
      "anonymous": false,
      "inputs": [
        {
          "indexed": true,
          "internalType": "uint256",
          "name": "auctionId",
          "type": "uint256"
        }
      ],
      "name": "EndBid",
      "type": "event"
    },
    {
      "anonymous": false,
      "inputs": [
        {
          "indexed": false,
          "internalType": "uint64",
          "name": "version",
          "type": "uint64"
        }
      ],
      "name": "Initialized",
      "type": "event"
    },
    {
      "anonymous": false,
      "inputs": [
        {
          "indexed": false,
          "internalType": "uint256",
          "name": "startingBid",
          "type": "uint256"
        }
      ],
      "name": "StartBid",
      "type": "event"
    },
    {
      "anonymous": false,
      "inputs": [
        {
          "indexed": true,
          "internalType": "address",
          "name": "bidder",
          "type": "address"
        },
        {
          "indexed": false,
          "internalType": "uint256",
          "name": "amount",
          "type": "uint256"
        }
      ],
      "name": "Withdraw",
      "type": "event"
    },
    {
      "inputs": [
        {
          "internalType": "uint256",
          "name": "",
          "type": "uint256"
        }
      ],
      "name": "auctions",
      "outputs": [
        {
          "internalType": "bool",
          "name": "end",
          "type": "bool"
        },
        {
          "internalType": "contract IERC721",
          "name": "nft",
          "type": "address"
        },
        {
          "internalType": "uint256",
          "name": "nftId",
          "type": "uint256"
        },
        {
          "internalType": "address payable",
          "name": "seller",
          "type": "address"
        },
        {
          "internalType": "uint256",
          "name": "startingTime",
          "type": "uint256"
        },
        {
          "internalType": "address",
          "name": "highestBidder",
          "type": "address"
        },
        {
          "internalType": "uint256",
          "name": "startingPriceInDollar",
          "type": "uint256"
        },
        {
          "internalType": "uint256",
          "name": "duration",
          "type": "uint256"
        },
        {
          "internalType": "contract IERC20",
          "name": "paymentToken",
          "type": "address"
        },
        {
          "internalType": "uint256",
          "name": "highestBid",
          "type": "uint256"
        }
      ],
      "stateMutability": "view",
      "type": "function"
    },
    {
      "inputs": [
        {
          "internalType": "uint256",
          "name": "auctionId_",
          "type": "uint256"
        }
      ],
      "name": "bid",
      "outputs": [],
      "stateMutability": "payable",
      "type": "function"
    },
    {
      "inputs": [
        {
          "internalType": "uint256",
          "name": "",
          "type": "uint256"
        },
        {
          "internalType": "address",
          "name": "",
          "type": "address"
        }
      ],
      "name": "bidMethods",
      "outputs": [
        {
          "internalType": "uint256",
          "name": "",
          "type": "uint256"
        }
      ],
      "stateMutability": "view",
      "type": "function"
    },
    {
      "inputs": [
        {
          "internalType": "uint256",
          "name": "",
          "type": "uint256"
        },
        {
          "internalType": "address",
          "name": "",
          "type": "address"
        }
      ],
      "name": "bids",
      "outputs": [
        {
          "internalType": "uint256",
          "name": "",
          "type": "uint256"
        }
      ],
      "stateMutability": "view",
      "type": "function"
    },
    {
      "inputs": [
        {
          "internalType": "uint256",
          "name": "auctionId_",
          "type": "uint256"
        }
      ],
      "name": "endBidding",
      "outputs": [],
      "stateMutability": "nonpayable",
      "type": "function"
    },
    {
      "inputs": [
        {
          "internalType": "uint256",
          "name": "bidMethod",
          "type": "uint256"
        }
      ],
      "name": "getPriceDecimals",
      "outputs": [
        {
          "internalType": "uint8",
          "name": "",
          "type": "uint8"
        }
      ],
      "stateMutability": "view",
      "type": "function"
    },
    {
      "inputs": [
        {
          "internalType": "uint256",
          "name": "bidMethod",
          "type": "uint256"
        }
      ],
      "name": "getPriceInDollar",
      "outputs": [
        {
          "internalType": "uint256",
          "name": "",
          "type": "uint256"
        }
      ],
      "stateMutability": "view",
      "type": "function"
    },
    {
      "inputs": [],
      "name": "getVersion",
      "outputs": [
        {
          "internalType": "string",
          "name": "",
          "type": "string"
        }
      ],
      "stateMutability": "pure",
      "type": "function"
    },
    {
      "inputs": [
        {
          "internalType": "address",
          "name": "admin_",
          "type": "address"
        }
      ],
      "name": "initialize",
      "outputs": [],
      "stateMutability": "nonpayable",
      "type": "function"
    },
    {
      "inputs": [
        {
          "internalType": "address",
          "name": "seller",
          "type": "address"
        },
        {
          "internalType": "uint256",
          "name": "nftId",
          "type": "uint256"
        },
        {
          "internalType": "address",
          "name": "nft",
          "type": "address"
        },
        {
          "internalType": "uint256",
          "name": "startingPriceInDollar",
          "type": "uint256"
        },
        {
          "internalType": "uint256",
          "name": "duration",
          "type": "uint256"
        },
        {
          "internalType": "address",
          "name": "paymentToken",
          "type": "address"
        }
      ],
      "name": "start",
      "outputs": [],
      "stateMutability": "nonpayable",
      "type": "function"
    },
    {
      "inputs": [
        {
          "internalType": "uint256",
          "name": "auctionId_",
          "type": "uint256"
        }
      ],
      "name": "withdraw",
      "outputs": [],
      "stateMutability": "nonpayable",
      "type": "function"
    }
  ],
  "bytecode": "0x6080604052348015600e575f5ffd5b5060156019565b60c9565b7ff0c57e16840df040f15088dc2f81fe391c3923bec73e23a9662efc9c229c6a00805468010000000000000000900460ff161560685760405163f92ee8a960e01b815260040160405180910390fd5b80546001600160401b039081161460c65780546001600160401b0319166001600160401b0390811782556040519081527fc7f505b2f371ae2175ee4913f4499e1f2633a7b5936321eed1cdaeb6115181d29060200160405180910390a15b50565b6114a0806100d65f395ff3fe60806040526004361061009a575f3560e01c80634d10e8a2116100625780634d10e8a21461017c578063571a26a0146101b257806363f86ab314610285578063baac642b146102b6578063c4d66de8146102d5578063f3e47e49146102f4575f5ffd5b8063093755ad1461009e5780630d8e6e2c146100bf5780632e1a7d4d146101065780633f1ffcec14610125578063454a2ab314610169575b5f5ffd5b3480156100a9575f5ffd5b506100bd6100b83660046110e8565b610313565b005b3480156100ca575f5ffd5b50604080518082018252601081526f26b2ba30a7232a20bab1ba34b7b72b1960811b602082015290516100fd91906110ff565b60405180910390f35b348015610111575f5ffd5b506100bd6101203660046110e8565b6103cf565b348015610130575f5ffd5b5061015b61013f36600461114f565b600160209081525f928352604080842090915290825290205481565b6040519081526020016100fd565b6100bd6101773660046110e8565b6105c1565b348015610187575f5ffd5b5061015b61019636600461114f565b600260209081525f928352604080842090915290825290205481565b3480156101bd575f5ffd5b5061022c6101cc3660046110e8565b600460208190525f918252604090912080546001820154600283015460038401549484015460058501546006860154600787015460089097015460ff8716986101009097046001600160a01b03908116989697958116969481169416908a565b604080519a15158b526001600160a01b03998a1660208c01528a01979097529487166060890152608088019390935290851660a087015260c086015260e0850152909116610100830152610120820152610140016100fd565b348015610290575f5ffd5b506102a461029f3660046110e8565b610b16565b60405160ff90911681526020016100fd565b3480156102c1575f5ffd5b506100bd6102d0366004611179565b610bb9565b3480156102e0575f5ffd5b506100bd6102ef3660046111d4565b610e2c565b3480156102ff575f5ffd5b5061015b61030e3660046110e8565b610f78565b5f81815260046020818152604080842081516101408101835281546001600160a01b0361010091829004811695830195909552600180840154838601526002840154861660608401526003840154608084015295830154851660a0830152600583015460c0830152600683015460e0830152600783015490941693810193909352600801546101208301529181529051909183917f49f8c3bdcd0eb514e0cc6e15c20ea38221feede47b929c3ea387bf7ec5ed09cf9190a25050565b5f81815260046020818152604092839020835161014081018552815460ff8116151582526001600160a01b036101009182900481169483019490945260018301549582019590955260028201548316606082015260038201546080820181905293820154831660a0820152600582015460c0820152600682015460e082018190526007830154909316948101949094526008015461012084015261047291611201565b42101561049a5760405162461bcd60e51b815260040161049190611214565b60405180910390fd5b5f8281526002602090815260408083203380855290835281842054868552600180855283862092865291909352908320805493905590919082900361050957604051339082156108fc029083905f818181858888f19350505050158015610503573d5f5f3e3d5ffd5b50610586565b6101008301516040516323b872dd60e01b8152306004820152336024820152604481018390526001600160a01b03909116906323b872dd906064016020604051808303815f875af1158015610560573d5f5f3e3d5ffd5b505050506040513d601f19601f820116820180604052508101906105849190611233565b505b60405181815233907f884edad9ce6fa2440d8a54cc123490eb96d2768479d49ff9c7366125a94243649060200160405180910390a250505050565b5f818152600460208181526040808420815161014081018352815460ff8116151582526001600160a01b03610100918290048116958301959095526001830154828501526002830154851660608301526003830154608083015282860154851660a0830152600583015460c0830152600683015460e083015260078301549094169381018490526008909101546101208201529051636eb1769f60e11b81523393810193909352306024840152929163dd62ed3e90604401602060405180830381865afa158015610694573d5f5f3e3d5ffd5b505050506040513d601f19601f820116820180604052508101906106b89190611252565b90505f3411806106c757505f81115b6106e35760405162461bcd60e51b815260040161049190611269565b5f341180156106f157505f81115b61073d5760405162461bcd60e51b815260206004820152601860248201527f6f6e6c79206f6e65206f6620455448206f7220746f6b656e00000000000000006044820152606401610491565b5f82608001511161077e5760405162461bcd60e51b815260206004820152600b60248201526a1b9bdd081cdd185c9d195960aa1b6044820152606401610491565b81511561079d5760405162461bcd60e51b815260040161049190611214565b8160e0015182608001516107b19190611201565b42106107cf5760405162461bcd60e51b815260040161049190611214565b60a08201516001600160a01b031615610823576101208201515f84815260016020908152604080832060a08701516001600160a01b031684529091528120805490919061081d908490611201565b90915550505b5f8034156108c8575f8581526002602090815260408083203384529091528120549250829003610872575f85815260026020908152604080832033845290915290206001908190559150610892565b816001146108925760405162461bcd60e51b815260040161049190611269565b5f61089c83610f78565b90505f6108a884610b16565b90506108b73460128484611022565b346101208801529250610a83915050565b5f83116109095760405162461bcd60e51b815260206004820152600f60248201526e1a5b9d985b1a59081c185e5b595b9d608a1b6044820152606401610491565b5f858152600260209081526040808320338452909152812054925082900361094e575f858152600260208181526040808420338552909152909120819055915061096e565b8160021461096e5760405162461bcd60e51b815260040161049190611269565b5f61097883610f78565b90505f61098484610b16565b90505f8661010001516001600160a01b031663313ce5676040518163ffffffff1660e01b8152600401602060405180830381865afa1580156109c8573d5f5f3e3d5ffd5b505050506040513d601f19601f820116820180604052508101906109ec919061128e565b90506109fa86828585611022565b61012088018790526101008801516040516323b872dd60e01b8152336004820152306024820152604481018990529195506001600160a01b0316906323b872dd906064016020604051808303815f875af1158015610a5a573d5f5f3e3d5ffd5b505050506040513d601f19601f82011682018060405250810190610a7e9190611233565b505050505b808460c0015110610ace5760405162461bcd60e51b8152602060048201526015602482015274696e76616c6964207374617274696e67507269636560581b6044820152606401610491565b3360a0850181905260408051348152602081018590527f19421268847f42dd61705778018ddfc43bcdce8517e7a630acb12f122c709481910160405180910390a25050505050565b5f5f82600103610b3b575073694aa1769357215de4fac081bf1f309adc325306610b52565b5073a2f78ab2355fe2f984d808b5cee7fd0a93d5270e5b806001600160a01b031663313ce5676040518163ffffffff1660e01b8152600401602060405180830381865afa158015610b8e573d5f5f3e3d5ffd5b505050506040513d601f19601f82011682018060405250810190610bb2919061128e565b9392505050565b5f546001600160a01b03163314610bfe5760405162461bcd60e51b81526020600482015260096024820152683737ba1030b236b4b760b91b6044820152606401610491565b6001600160a01b038416610c425760405162461bcd60e51b815260206004820152600b60248201526a1a5b9d985b1a59081b999d60aa1b6044820152606401610491565b603c8211610c855760405162461bcd60e51b815260206004820152601060248201526f34b73b30b634b210323ab930ba34b7b760811b6044820152606401610491565b6001600160a01b038116610cd35760405162461bcd60e51b815260206004820152601560248201527434b73b30b634b2103830bcb6b2b73a103a37b5b2b760591b6044820152606401610491565b60408051610140810182525f8082526001600160a01b0380881660208085019182528486018b81528c841660608701908152426080880190815260a0880187815260c089018d815260e08a018d81528c8916610100808d019182526101208d018c8152600380548e5260049a8b90529e8d209d518e549b518d16909202610100600160a81b0319921515929092166001600160a81b0319909b169a909a17178c55955160018c0155935160028b018054918a166001600160a01b031992831617905592518a8c015590519489018054958816958316959095179094559251600588015551600687015551600786018054919094169116179091555160089092019190915581549190610de4836112ae565b91905055507fb5949404365a99702891e7d343a17849cef9b8b7bdb7773922e333f46de188a7600354604051610e1c91815260200190565b60405180910390a1505050505050565b5f610e356110be565b805490915060ff600160401b820416159067ffffffffffffffff165f81158015610e5c5750825b90505f8267ffffffffffffffff166001148015610e785750303b155b905081158015610e86575080155b15610ea45760405163f92ee8a960e01b815260040160405180910390fd5b845467ffffffffffffffff191660011785558315610ece57845460ff60401b1916600160401b1785555b6001600160a01b038616610f145760405162461bcd60e51b815260206004820152600d60248201526c34b73b30b634b21030b236b4b760991b6044820152606401610491565b5f80546001600160a01b0319166001600160a01b0388161790558315610f7057845460ff60401b19168555604051600181527fc7f505b2f371ae2175ee4913f4499e1f2633a7b5936321eed1cdaeb6115181d290602001610e1c565b505050505050565b5f5f82600103610f9d575073694aa1769357215de4fac081bf1f309adc325306610fb4565b5073a2f78ab2355fe2f984d808b5cee7fd0a93d5270e5b5f816001600160a01b031663feaf968c6040518163ffffffff1660e01b815260040160a060405180830381865afa158015610ff1573d5f5f3e3d5ffd5b505050506040513d601f19601f8201168201806040525081019061101591906112df565b5091979650505050505050565b5f8061103260ff8616600a611410565b90505f81611040868961141b565b61104a9190611432565b9050600860ff8516111561108257611063600885611451565b6110719060ff16600a611410565b61107b9082611432565b90506110b4565b600860ff851610156110b457611099846008611451565b6110a79060ff16600a611410565b6110b1908261141b565b90505b9695505050505050565b5f807ff0c57e16840df040f15088dc2f81fe391c3923bec73e23a9662efc9c229c6a005b92915050565b5f602082840312156110f8575f5ffd5b5035919050565b602081525f82518060208401528060208501604085015e5f604082850101526040601f19601f83011684010191505092915050565b80356001600160a01b038116811461114a575f5ffd5b919050565b5f5f60408385031215611160575f5ffd5b8235915061117060208401611134565b90509250929050565b5f5f5f5f5f5f60c0878903121561118e575f5ffd5b61119787611134565b9550602087013594506111ac60408801611134565b935060608701359250608087013591506111c860a08801611134565b90509295509295509295565b5f602082840312156111e4575f5ffd5b610bb282611134565b634e487b7160e01b5f52601160045260245ffd5b808201808211156110e2576110e26111ed565b602080825260059082015264195b99195960da1b604082015260600190565b5f60208284031215611243575f5ffd5b81518015158114610bb2575f5ffd5b5f60208284031215611262575f5ffd5b5051919050565b6020808252600b908201526a1a5b9d985b1a5908189a5960aa1b604082015260600190565b5f6020828403121561129e575f5ffd5b815160ff81168114610bb2575f5ffd5b5f600182016112bf576112bf6111ed565b5060010190565b805169ffffffffffffffffffff8116811461114a575f5ffd5b5f5f5f5f5f60a086880312156112f3575f5ffd5b6112fc866112c6565b60208701516040880151606089015192975090955093509150611321608087016112c6565b90509295509295909350565b6001815b60018411156113685780850481111561134c5761134c6111ed565b600184161561135a57908102905b60019390931c928002611331565b935093915050565b5f8261137e575060016110e2565b8161138a57505f6110e2565b81600181146113a057600281146113aa576113c6565b60019150506110e2565b60ff8411156113bb576113bb6111ed565b50506001821b6110e2565b5060208310610133831016604e8410600b84101617156113e9575081810a6110e2565b6113f55f19848461132d565b805f1904821115611408576114086111ed565b029392505050565b5f610bb28383611370565b80820281158282048414176110e2576110e26111ed565b5f8261144c57634e487b7160e01b5f52601260045260245ffd5b500490565b60ff82811682821603908111156110e2576110e26111ed56fea2646970667358221220b21ddbb438f15953ff2c1ee356def94e64532d6d8ab6a7cfbac6f25080f1072464736f6c634300081c0033",
  "linkReferences": {},
  "deployedLinkReferences": {},
  "immutableReferences": {},
  "inputSourceName": "project/contracts/MetaNFTAuctionV2.sol",
  "buildInfoId": "solc-0_8_28-6606f5311297e4cec2cee1466fd8bcf3581d2f4f"
}