{
  "_format": "hh3-artifact-1",
  "contractName": "MetaNFT",
  "sourceName": "contracts/MetaNFT.sol",
  "abi": [
    {
      "inputs": [],
      "stateMutability": "nonpayable",
      "type": "constructor"
    },
    {
      "inputs": [
        {
          "internalType": "address",
          "name": "sender",
          "type": "address"
        },
        {
          "internalType": "uint256",
          "name": "tokenId",
          "type": "uint256"
        },
        {
          "internalType": "address",
          "name": "owner",
          "type": "address"
        }
      ],
      "name": "ERC721IncorrectOwner",
      "type": "error"
    },
    {
      "inputs": [
        {
          "internalType": "address",
          "name": "operator",
          "type": "address"
        },
        {
          "internalType": "uint256",
          "name": "tokenId",
          "type": "uint256"
        }
      ],
      "name": "ERC721InsufficientApproval",
      "type": "error"
    },
    {
      "inputs": [
        {
          "internalType": "address",
          "name": "approver",
          "type": "address"
        }
      ],
      "name": "ERC721InvalidApprover",
      "type": "error"
    },
    {
      "inputs": [
        {
          "internalType": "address",
          "name": "operator",
          "type": "address"
        }
      ],
      "name": "ERC721InvalidOperator",
      "type": "error"
    },
    {
      "inputs": [
        {
          "internalType": "address",
          "name": "owner",
          "type": "address"
        }
      ],
      "name": "ERC721InvalidOwner",
      "type": "error"
    },
    {
      "inputs": [
        {
          "internalType": "address",
          "name": "receiver",
          "type": "address"
        }
      ],
      "name": "ERC721InvalidReceiver",
      "type": "error"
    },
    {
      "inputs": [
        {
          "internalType": "address",
          "name": "sender",
          "type": "address"
        }
      ],
      "name": "ERC721InvalidSender",
      "type": "error"
    },
    {
      "inputs": [
        {
          "internalType": "uint256",
          "name": "tokenId",
          "type": "uint256"
        }
      ],
      "name": "ERC721NonexistentToken",
      "type": "error"
    },
    {
      "anonymous": false,
      "inputs": [
        {
          "indexed": true,
          "internalType": "address",
          "name": "owner",
          "type": "address"
        },
        {
          "indexed": true,
          "internalType": "address",
          "name": "approved",
          "type": "address"
        },
        {
          "indexed": true,
          "internalType": "uint256",
          "name": "tokenId",
          "type": "uint256"
        }
      ],
      "name": "Approval",
      "type": "event"
    },
    {
      "anonymous": false,
      "inputs": [
        {
          "indexed": true,
          "internalType": "address",
          "name": "owner",
          "type": "address"
        },
        {
          "indexed": true,
          "internalType": "address",
          "name": "operator",
          "type": "address"
        },
        {
          "indexed": false,
          "internalType": "bool",
          "name": "approved",
          "type": "bool"
        }
      ],
      "name": "ApprovalForAll",
      "type": "event"
    },
    {
      "anonymous": false,
      "inputs": [
        {
          "indexed": true,
          "internalType": "address",
          "name": "from",
          "type": "address"
        },
        {
          "indexed": true,
          "internalType": "address",
          "name": "to",
          "type": "address"
        },
        {
          "indexed": true,
          "internalType": "uint256",
          "name": "tokenId",
          "type": "uint256"
        }
      ],
      "name": "Transfer",
      "type": "event"
    },
    {
      "inputs": [
        {
          "internalType": "address",
          "name": "to",
          "type": "address"
        },
        {
          "internalType": "uint256",
          "name": "tokenId",
          "type": "uint256"
        }
      ],
      "name": "approve",
      "outputs": [],
      "stateMutability": "nonpayable",
      "type": "function"
    },
    {
      "inputs": [
        {
          "internalType": "address",
          "name": "owner",
          "type": "address"
        }
      ],
      "name": "balanceOf",
      "outputs": [
        {
          "internalType": "uint256",
          "name": "",
          "type": "uint256"
        }
      ],
      "stateMutability": "view",
      "type": "function"
    },
    {
      "inputs": [
        {
          "internalType": "uint256",
          "name": "id",
          "type": "uint256"
        }
      ],
      "name": "burn",
      "outputs": [],
      "stateMutability": "nonpayable",
      "type": "function"
    },
    {
      "inputs": [
        {
          "internalType": "uint256",
          "name": "tokenId",
          "type": "uint256"
        }
      ],
      "name": "getApproved",
      "outputs": [
        {
          "internalType": "address",
          "name": "",
          "type": "address"
        }
      ],
      "stateMutability": "view",
      "type": "function"
    },
    {
      "inputs": [
        {
          "internalType": "address",
          "name": "owner",
          "type": "address"
        },
        {
          "internalType": "address",
          "name": "operator",
          "type": "address"
        }
      ],
      "name": "isApprovedForAll",
      "outputs": [
        {
          "internalType": "bool",
          "name": "",
          "type": "bool"
        }
      ],
      "stateMutability": "view",
      "type": "function"
    },
    {
      "inputs": [
        {
          "internalType": "address",
          "name": "to",
          "type": "address"
        }
      ],
      "name": "mint",
      "outputs": [],
      "stateMutability": "nonpayable",
      "type": "function"
    },
    {
      "inputs": [],
      "name": "name",
      "outputs": [
        {
          "internalType": "string",
          "name": "",
          "type": "string"
        }
      ],
      "stateMutability": "view",
      "type": "function"
    },
    {
      "inputs": [
        {
          "internalType": "uint256",
          "name": "tokenId",
          "type": "uint256"
        }
      ],
      "name": "ownerOf",
      "outputs": [
        {
          "internalType": "address",
          "name": "",
          "type": "address"
        }
      ],
      "stateMutability": "view",
      "type": "function"
    },
    {
      "inputs": [
        {
          "internalType": "address",
          "name": "from",
          "type": "address"
        },
        {
          "internalType": "address",
          "name": "to",
          "type": "address"
        },
        {
          "internalType": "uint256",
          "name": "tokenId",
          "type": "uint256"
        }
      ],
      "name": "safeTransferFrom",
      "outputs": [],
      "stateMutability": "nonpayable",
      "type": "function"
    },
    {
      "inputs": [
        {
          "internalType": "address",
          "name": "from",
          "type": "address"
        },
        {
          "internalType": "address",
          "name": "to",
          "type": "address"
        },
        {
          "internalType": "uint256",
          "name": "tokenId",
          "type": "uint256"
        },
        {
          "internalType": "bytes",
          "name": "data",
          "type": "bytes"
        }
      ],
      "name": "safeTransferFrom",
      "outputs": [],
      "stateMutability": "nonpayable",
      "type": "function"
    },
    {
      "inputs": [
        {
          "internalType": "address",
          "name": "operator",
          "type": "address"
        },
        {
          "internalType": "bool",
          "name": "approved",
          "type": "bool"
        }
      ],
      "name": "setApprovalForAll",
      "outputs": [],
      "stateMutability": "nonpayable",
      "type": "function"
    },
    {
      "inputs": [
        {
          "internalType": "bytes4",
          "name": "interfaceId",
          "type": "bytes4"
        }
      ],
      "name": "supportsInterface",
      "outputs": [
        {
          "internalType": "bool",
          "name": "",
          "type": "bool"
        }
      ],
      "stateMutability": "view",
      "type": "function"
    },
    {
      "inputs": [],
      "name": "symbol",
      "outputs": [
        {
          "internalType": "string",
          "name": "",
          "type": "string"
        }
      ],
      "stateMutability": "view",
      "type": "function"
    },
    {
      "inputs": [
        {
          "internalType": "uint256",
          "name": "tokenId",
          "type": "uint256"
        }
      ],
      "name": "tokenURI",
      "outputs": [
        {
          "internalType": "string",
          "name": "",
          "type": "string"
        }
      ],
      "stateMutability": "view",
      "type": "function"
    },
    {
      "inputs": [
        {
          "internalType": "address",
          "name": "from",
          "type": "address"
        },
        {
          "internalType": "address",
          "name": "to",
          "type": "address"
        },
        {
          "internalType": "uint256",
          "name": "tokenId",
          "type": "uint256"
        }
      ],
      "name": "transferFrom",
      "outputs": [],
      "stateMutability": "nonpayable",
      "type": "function"
    }
  ],
  "bytecode": "0x608060405234801561000f575f5ffd5b506040518060400160405280600781526020016613595d1853919560ca1b8152506040518060400160405280600381526020016213519560ea1b815250815f908161005a91906104ec565b50600161006782826104ec565b5050505f61007b60066100ad60201b60201c565b905061008733826100b1565b610095600680546001019055565b50600780546001600160a01b031916331790556105a6565b5490565b6001600160a01b0382166100df57604051633250574960e11b81525f60048201526024015b60405180910390fd5b5f6100eb83838361011c565b90506001600160a01b03811615610117576040516339e3563760e11b81525f60048201526024016100d6565b505050565b5f828152600260205260408120546001600160a01b03908116908316156101485761014881848661020e565b6001600160a01b03811615610182576101635f858180610272565b6001600160a01b0381165f90815260036020526040902080545f190190555b6001600160a01b038516156101b0576001600160a01b0385165f908152600360205260409020805460010190555b5f8481526002602052604080822080546001600160a01b0319166001600160a01b0389811691821790925591518793918516917fddf252ad1be2c89b69c2b068fc378daa952ba7f163c4a11628f55a4df523b3ef91a4949350505050565b610219838383610394565b610117576001600160a01b03831661024757604051637e27328960e01b8152600481018290526024016100d6565b60405163177e802f60e01b81526001600160a01b0383166004820152602481018290526044016100d6565b808061028657506001600160a01b03821615155b15610365575f61029584610417565b90506001600160a01b038316158015906102c15750826001600160a01b0316816001600160a01b031614155b80156102f257506001600160a01b038082165f9081526005602090815260408083209387168352929052205460ff16155b1561031b5760405163a9fbf51f60e01b81526001600160a01b03841660048201526024016100d6565b81156103635783856001600160a01b0316826001600160a01b03167f8c5be1e5ebec7d5bd14f71427d1e84f3dd0314c0f7b2291e5b200ac8c7c3b92560405160405180910390a45b505b50505f90815260046020526040902080546001600160a01b0319166001600160a01b0392909216919091179055565b5f6001600160a01b0383161580159061040f5750826001600160a01b0316846001600160a01b031614806103ec57506001600160a01b038085165f9081526005602090815260408083209387168352929052205460ff165b8061040f57505f828152600460205260409020546001600160a01b038481169116145b949350505050565b5f818152600260205260408120546001600160a01b03168061044f57604051637e27328960e01b8152600481018490526024016100d6565b92915050565b634e487b7160e01b5f52604160045260245ffd5b600181811c9082168061047d57607f821691505b60208210810361049b57634e487b7160e01b5f52602260045260245ffd5b50919050565b601f82111561011757805f5260205f20601f840160051c810160208510156104c65750805b601f840160051c820191505b818110156104e5575f81556001016104d2565b5050505050565b81516001600160401b0381111561050557610505610455565b610519816105138454610469565b846104a1565b6020601f82116001811461054b575f83156105345750848201515b5f19600385901b1c1916600184901b1784556104e5565b5f84815260208120601f198516915b8281101561057a578785015182556020948501946001909201910161055a565b508482101561059757868401515f19600387901b60f8161c191681555b50505050600190811b01905550565b611068806105b35f395ff3fe608060405234801561000f575f5ffd5b50600436106100f0575f3560e01c80636352211e11610093578063a22cb46511610063578063a22cb465146101f9578063b88d4fde1461020c578063c87b56dd1461021f578063e985e9c514610232575f5ffd5b80636352211e146101aa5780636a627842146101bd57806370a08231146101d057806395d89b41146101f1575f5ffd5b8063095ea7b3116100ce578063095ea7b31461015c57806323b872dd1461017157806342842e0e1461018457806342966c6814610197575f5ffd5b806301ffc9a7146100f457806306fdde031461011c578063081812fc14610131575b5f5ffd5b610107610102366004610cf2565b610245565b60405190151581526020015b60405180910390f35b610124610296565b6040516101139190610d3b565b61014461013f366004610d4d565b610325565b6040516001600160a01b039091168152602001610113565b61016f61016a366004610d7f565b61034c565b005b61016f61017f366004610da7565b61035b565b61016f610192366004610da7565b6103e9565b61016f6101a5366004610d4d565b610408565b6101446101b8366004610d4d565b610477565b61016f6101cb366004610de1565b610481565b6101e36101de366004610de1565b6104cf565b604051908152602001610113565b610124610514565b61016f610207366004610dfa565b610523565b61016f61021a366004610e47565b61052e565b61012461022d366004610d4d565b610546565b610107610240366004610f24565b6105b7565b5f6001600160e01b031982166380ac58cd60e01b148061027557506001600160e01b03198216635b5e139f60e01b145b8061029057506301ffc9a760e01b6001600160e01b03198316145b92915050565b60605f80546102a490610f55565b80601f01602080910402602001604051908101604052809291908181526020018280546102d090610f55565b801561031b5780601f106102f25761010080835404028352916020019161031b565b820191905f5260205f20905b8154815290600101906020018083116102fe57829003601f168201915b5050505050905090565b5f61032f826105e4565b505f828152600460205260409020546001600160a01b0316610290565b61035782823361061c565b5050565b6001600160a01b03821661038957604051633250574960e11b81525f60048201526024015b60405180910390fd5b5f610395838333610629565b9050836001600160a01b0316816001600160a01b0316146103e3576040516364283d7b60e01b81526001600160a01b0380861660048301526024820184905282166044820152606401610380565b50505050565b61040383838360405180602001604052805f81525061052e565b505050565b6007546001600160a01b031633146104325760405162461bcd60e51b815260040161038090610f8d565b61043b81610477565b6001600160a01b0316336001600160a01b03161461046b5760405162461bcd60e51b815260040161038090610f8d565b6104748161071b565b50565b5f610290826105e4565b6007546001600160a01b031633146104ab5760405162461bcd60e51b815260040161038090610f8d565b5f6104b560065490565b90506104c18282610753565b610357600680546001019055565b5f6001600160a01b0382166104f9576040516322718ad960e21b81525f6004820152602401610380565b506001600160a01b03165f9081526003602052604090205490565b6060600180546102a490610f55565b61035733838361076c565b61053984848461035b565b6103e3338585858561080a565b6060610551826105e4565b505f61056760408051602081019091525f815290565b90505f8151116105855760405180602001604052805f8152506105b0565b8061058f84610932565b6040516020016105a0929190610fc7565b6040516020818303038152906040525b9392505050565b6001600160a01b039182165f90815260056020908152604080832093909416825291909152205460ff1690565b5f818152600260205260408120546001600160a01b03168061029057604051637e27328960e01b815260048101849052602401610380565b61040383838360016109c2565b5f828152600260205260408120546001600160a01b039081169083161561065557610655818486610ac6565b6001600160a01b0381161561068f576106705f855f5f6109c2565b6001600160a01b0381165f90815260036020526040902080545f190190555b6001600160a01b038516156106bd576001600160a01b0385165f908152600360205260409020805460010190555b5f8481526002602052604080822080546001600160a01b0319166001600160a01b0389811691821790925591518793918516917fddf252ad1be2c89b69c2b068fc378daa952ba7f163c4a11628f55a4df523b3ef91a4949350505050565b5f6107275f835f610629565b90506001600160a01b03811661035757604051637e27328960e01b815260048101839052602401610380565b610357828260405180602001604052805f815250610b2a565b6001600160a01b03821661079e57604051630b61174360e31b81526001600160a01b0383166004820152602401610380565b6001600160a01b038381165f81815260056020908152604080832094871680845294825291829020805460ff191686151590811790915591519182527f17307eab39ab6107e8899845ad3d59bd9653f200f220920489ca2b5937696c31910160405180910390a3505050565b6001600160a01b0383163b1561092b57604051630a85bd0160e11b81526001600160a01b0384169063150b7a029061084c908890889087908790600401610fdb565b6020604051808303815f875af1925050508015610886575060408051601f3d908101601f1916820190925261088391810190611017565b60015b6108ed573d8080156108b3576040519150601f19603f3d011682016040523d82523d5f602084013e6108b8565b606091505b5080515f036108e557604051633250574960e11b81526001600160a01b0385166004820152602401610380565b805160208201fd5b6001600160e01b03198116630a85bd0160e11b1461092957604051633250574960e11b81526001600160a01b0385166004820152602401610380565b505b5050505050565b60605f61093e83610b41565b60010190505f8167ffffffffffffffff81111561095d5761095d610e33565b6040519080825280601f01601f191660200182016040528015610987576020820181803683370190505b5090508181016020015b5f19016f181899199a1a9b1b9c1cb0b131b232b360811b600a86061a8153600a850494508461099157509392505050565b80806109d657506001600160a01b03821615155b15610a97575f6109e5846105e4565b90506001600160a01b03831615801590610a115750826001600160a01b0316816001600160a01b031614155b8015610a245750610a2281846105b7565b155b15610a4d5760405163a9fbf51f60e01b81526001600160a01b0384166004820152602401610380565b8115610a955783856001600160a01b0316826001600160a01b03167f8c5be1e5ebec7d5bd14f71427d1e84f3dd0314c0f7b2291e5b200ac8c7c3b92560405160405180910390a45b505b50505f90815260046020526040902080546001600160a01b0319166001600160a01b0392909216919091179055565b610ad1838383610c18565b610403576001600160a01b038316610aff57604051637e27328960e01b815260048101829052602401610380565b60405163177e802f60e01b81526001600160a01b038316600482015260248101829052604401610380565b610b348383610c7c565b610403335f85858561080a565b5f8072184f03e93ff9f4daa797ed6e38ed64bf6a1f0160401b8310610b7f5772184f03e93ff9f4daa797ed6e38ed64bf6a1f0160401b830492506040015b6d04ee2d6d415b85acef81000000008310610bab576d04ee2d6d415b85acef8100000000830492506020015b662386f26fc100008310610bc957662386f26fc10000830492506010015b6305f5e1008310610be1576305f5e100830492506008015b6127108310610bf557612710830492506004015b60648310610c07576064830492506002015b600a83106102905760010192915050565b5f6001600160a01b03831615801590610c745750826001600160a01b0316846001600160a01b03161480610c515750610c5184846105b7565b80610c7457505f828152600460205260409020546001600160a01b038481169116145b949350505050565b6001600160a01b038216610ca557604051633250574960e11b81525f6004820152602401610380565b5f610cb183835f610629565b90506001600160a01b03811615610403576040516339e3563760e11b81525f6004820152602401610380565b6001600160e01b031981168114610474575f5ffd5b5f60208284031215610d02575f5ffd5b81356105b081610cdd565b5f81518084528060208401602086015e5f602082860101526020601f19601f83011685010191505092915050565b602081525f6105b06020830184610d0d565b5f60208284031215610d5d575f5ffd5b5035919050565b80356001600160a01b0381168114610d7a575f5ffd5b919050565b5f5f60408385031215610d90575f5ffd5b610d9983610d64565b946020939093013593505050565b5f5f5f60608486031215610db9575f5ffd5b610dc284610d64565b9250610dd060208501610d64565b929592945050506040919091013590565b5f60208284031215610df1575f5ffd5b6105b082610d64565b5f5f60408385031215610e0b575f5ffd5b610e1483610d64565b915060208301358015158114610e28575f5ffd5b809150509250929050565b634e487b7160e01b5f52604160045260245ffd5b5f5f5f5f60808587031215610e5a575f5ffd5b610e6385610d64565b9350610e7160208601610d64565b925060408501359150606085013567ffffffffffffffff811115610e93575f5ffd5b8501601f81018713610ea3575f5ffd5b803567ffffffffffffffff811115610ebd57610ebd610e33565b604051601f8201601f19908116603f0116810167ffffffffffffffff81118282101715610eec57610eec610e33565b604052818152828201602001891015610f03575f5ffd5b816020840160208301375f6020838301015280935050505092959194509250565b5f5f60408385031215610f35575f5ffd5b610f3e83610d64565b9150610f4c60208401610d64565b90509250929050565b600181811c90821680610f6957607f821691505b602082108103610f8757634e487b7160e01b5f52602260045260245ffd5b50919050565b6020808252600990820152683737ba1037bbb732b960b91b604082015260600190565b5f81518060208401855e5f93019283525090919050565b5f610c74610fd58386610fb0565b84610fb0565b6001600160a01b03858116825284166020820152604081018390526080606082018190525f9061100d90830184610d0d565b9695505050505050565b5f60208284031215611027575f5ffd5b81516105b081610cdd56fea26469706673582212207b4838d7cf9f9c900631689fa0666f471021686a9c3558512db56fb4b44164c664736f6c634300081c0033",
  "linkReferences": {},
  "deployedLinkReferences": {},
  "immutableReferences": {},
  "inputSourceName": "project/contracts/MetaNFT.sol",
  "buildInfoId": "solc-0_8_28-1eed822d4bd77f8847042f2cf72bb56bcc1d54d3"
}