{
  "_format": "hh3-artifact-1",
  "contractName": "MetaNFTAuction",
  "sourceName": "contracts/MetaNFTAuction.sol",
  "abi": [
    {
      "inputs": [],
      "stateMutability": "nonpayable",
      "type": "constructor"
    },
    {
      "inputs": [],
      "name": "InvalidInitialization",
      "type": "error"
    },
    {
      "inputs": [],
      "name": "NotInitializing",
      "type": "error"
    },
    {
      "anonymous": false,
      "inputs": [
        {
          "indexed": true,
          "internalType": "address",
          "name": "sender",
          "type": "address"
        },
        {
          "indexed": false,
          "internalType": "uint256",
          "name": "amount",
          "type": "uint256"
        },
        {
          "indexed": false,
          "internalType": "uint256",
          "name": "bidMethod",
          "type": "uint256"
        }
      ],
      "name": "Bid",
      "type": "event"
    },
    {
      "anonymous": false,
      "inputs": [
        {
          "indexed": true,
          "internalType": "uint256",
          "name": "auctionId",
          "type": "uint256"
        }
      ],
      "name": "EndBid",
      "type": "event"
    },
    {
      "anonymous": false,
      "inputs": [
        {
          "indexed": false,
          "internalType": "uint64",
          "name": "version",
          "type": "uint64"
        }
      ],
      "name": "Initialized",
      "type": "event"
    },
    {
      "anonymous": false,
      "inputs": [
        {
          "indexed": false,
          "internalType": "uint256",
          "name": "startingBid",
          "type": "uint256"
        }
      ],
      "name": "StartBid",
      "type": "event"
    },
    {
      "anonymous": false,
      "inputs": [
        {
          "indexed": true,
          "internalType": "address",
          "name": "bidder",
          "type": "address"
        },
        {
          "indexed": false,
          "internalType": "uint256",
          "name": "amount",
          "type": "uint256"
        }
      ],
      "name": "Withdraw",
      "type": "event"
    },
    {
      "inputs": [],
      "name": "auctionId",
      "outputs": [
        {
          "internalType": "uint256",
          "name": "",
          "type": "uint256"
        }
      ],
      "stateMutability": "view",
      "type": "function"
    },
    {
      "inputs": [
        {
          "internalType": "uint256",
          "name": "",
          "type": "uint256"
        }
      ],
      "name": "auctions",
      "outputs": [
        {
          "internalType": "bool",
          "name": "end",
          "type": "bool"
        },
        {
          "internalType": "contract IERC721",
          "name": "nft",
          "type": "address"
        },
        {
          "internalType": "uint256",
          "name": "nftId",
          "type": "uint256"
        },
        {
          "internalType": "address payable",
          "name": "seller",
          "type": "address"
        },
        {
          "internalType": "uint256",
          "name": "startingTime",
          "type": "uint256"
        },
        {
          "internalType": "address",
          "name": "highestBidder",
          "type": "address"
        },
        {
          "internalType": "uint256",
          "name": "startingPriceInDollar",
          "type": "uint256"
        },
        {
          "internalType": "uint256",
          "name": "duration",
          "type": "uint256"
        },
        {
          "internalType": "contract IERC20",
          "name": "paymentToken",
          "type": "address"
        },
        {
          "internalType": "uint256",
          "name": "highestBid",
          "type": "uint256"
        },
        {
          "internalType": "uint256",
          "name": "highestBidInDollar",
          "type": "uint256"
        }
      ],
      "stateMutability": "view",
      "type": "function"
    },
    {
      "inputs": [
        {
          "internalType": "uint256",
          "name": "auctionId_",
          "type": "uint256"
        }
      ],
      "name": "bid",
      "outputs": [],
      "stateMutability": "payable",
      "type": "function"
    },
    {
      "inputs": [
        {
          "internalType": "uint256",
          "name": "",
          "type": "uint256"
        },
        {
          "internalType": "address",
          "name": "",
          "type": "address"
        }
      ],
      "name": "bidMethods",
      "outputs": [
        {
          "internalType": "uint256",
          "name": "",
          "type": "uint256"
        }
      ],
      "stateMutability": "view",
      "type": "function"
    },
    {
      "inputs": [
        {
          "internalType": "uint256",
          "name": "",
          "type": "uint256"
        },
        {
          "internalType": "address",
          "name": "",
          "type": "address"
        }
      ],
      "name": "bids",
      "outputs": [
        {
          "internalType": "uint256",
          "name": "",
          "type": "uint256"
        }
      ],
      "stateMutability": "view",
      "type": "function"
    },
    {
      "inputs": [
        {
          "internalType": "uint256",
          "name": "auctionId_",
          "type": "uint256"
        }
      ],
      "name": "endBidding",
      "outputs": [],
      "stateMutability": "nonpayable",
      "type": "function"
    },
    {
      "inputs": [
        {
          "internalType": "uint256",
          "name": "bidMethod",
          "type": "uint256"
        }
      ],
      "name": "getPriceInDollar",
      "outputs": [
        {
          "internalType": "uint256",
          "name": "",
          "type": "uint256"
        }
      ],
      "stateMutability": "view",
      "type": "function"
    },
    {
      "inputs": [],
      "name": "getVersion",
      "outputs": [
        {
          "internalType": "string",
          "name": "",
          "type": "string"
        }
      ],
      "stateMutability": "pure",
      "type": "function"
    },
    {
      "inputs": [
        {
          "internalType": "address",
          "name": "admin_",
          "type": "address"
        }
      ],
      "name": "initialize",
      "outputs": [],
      "stateMutability": "nonpayable",
      "type": "function"
    },
    {
      "inputs": [
        {
          "internalType": "address",
          "name": "seller",
          "type": "address"
        },
        {
          "internalType": "uint256",
          "name": "nftId",
          "type": "uint256"
        },
        {
          "internalType": "address",
          "name": "nft",
          "type": "address"
        },
        {
          "internalType": "uint256",
          "name": "startingPriceInDollar",
          "type": "uint256"
        },
        {
          "internalType": "uint256",
          "name": "duration",
          "type": "uint256"
        },
        {
          "internalType": "address",
          "name": "paymentToken",
          "type": "address"
        }
      ],
      "name": "start",
      "outputs": [],
      "stateMutability": "nonpayable",
      "type": "function"
    },
    {
      "inputs": [
        {
          "internalType": "uint256",
          "name": "auctionId_",
          "type": "uint256"
        }
      ],
      "name": "withdraw",
      "outputs": [
        {
          "internalType": "uint256",
          "name": "",
          "type": "uint256"
        }
      ],
      "stateMutability": "nonpayable",
      "type": "function"
    }
  ],
  "bytecode": "0x6080604052348015600e575f5ffd5b5060156019565b60c9565b7ff0c57e16840df040f15088dc2f81fe391c3923bec73e23a9662efc9c229c6a00805468010000000000000000900460ff161560685760405163f92ee8a960e01b815260040160405180910390fd5b80546001600160401b039081161460c65780546001600160401b0319166001600160401b0390811782556040519081527fc7f505b2f371ae2175ee4913f4499e1f2633a7b5936321eed1cdaeb6115181d29060200160405180910390a15b50565b611360806100d65f395ff3fe60806040526004361061009a575f3560e01c8063454a2ab311610062578063454a2ab31461017e5780634d10e8a214610191578063571a26a0146101c7578063baac642b146102aa578063c4d66de8146102c9578063f3e47e49146102e8575f5ffd5b8063093755ad1461009e5780630d8e6e2c146100bf57806310782f8f146101065780632e1a7d4d146101295780633f1ffcec14610148575b5f5ffd5b3480156100a9575f5ffd5b506100bd6100b8366004610fdf565b610307565b005b3480156100ca575f5ffd5b50604080518082018252601081526f4d6574614e465441756374696f6e563160801b602082015290516100fd9190610ff6565b60405180910390f35b348015610111575f5ffd5b5061011b60035481565b6040519081526020016100fd565b348015610134575f5ffd5b5061011b610143366004610fdf565b6103b9565b348015610153575f5ffd5b5061011b610162366004611046565b600160209081525f928352604080842090915290825290205481565b6100bd61018c366004610fdf565b61053d565b34801561019c575f5ffd5b5061011b6101ab366004611046565b600260209081525f928352604080842090915290825290205481565b3480156101d2575f5ffd5b506102486101e1366004610fdf565b600460208190525f9182526040909120805460018201546002830154600384015494840154600585015460068601546007870154600888015460099098015460ff8816996101009098046001600160a01b039081169997989681169795811695921691908b565b604080519b15158c526001600160a01b039a8b1660208d01528b019890985295881660608a0152608089019490945291861660a088015260c087015260e0860152909216610100840152610120830191909152610140820152610160016100fd565b3480156102b5575f5ffd5b506100bd6102c4366004611070565b610ace565b3480156102d4575f5ffd5b506100bd6102e33660046110cb565b610d90565b3480156102f3575f5ffd5b5061011b610302366004610fdf565b610edc565b5f546001600160a01b031633146103515760405162461bcd60e51b81526020600482015260096024820152683737ba1030b236b4b760b91b60448201526064015b60405180910390fd5b5f818152600460205260409020805460ff16156103805760405162461bcd60e51b8152600401610348906110eb565b805460ff1916600117815560405182907f49f8c3bdcd0eb514e0cc6e15c20ea38221feede47b929c3ea387bf7ec5ed09cf905f90a25050565b5f818152600460205260408120600681015460038201546103da919061111e565b4210156104155760405162461bcd60e51b81526020600482015260096024820152681b9bdd08195b99195960ba1b6044820152606401610348565b5f8381526002602090815260408083203380855290835281842054878552600180855283862092865291909352908320805493905590919082900361048457604051339082156108fc029083905f818181858888f1935050505015801561047e573d5f5f3e3d5ffd5b50610500565b60078301546040516323b872dd60e01b8152306004820152336024820152604481018390526001600160a01b03909116906323b872dd906064016020604051808303815f875af11580156104da573d5f5f3e3d5ffd5b505050506040513d601f19601f820116820180604052508101906104fe9190611131565b505b60405181815233907f884edad9ce6fa2440d8a54cc123490eb96d2768479d49ff9c7366125a94243649060200160405180910390a2949350505050565b5f81815260046020819052604080832060078101549151636eb1769f60e11b8152339381019390935230602484015292916001600160a01b039091169063dd62ed3e90604401602060405180830381865afa15801561059e573d5f5f3e3d5ffd5b505050506040513d601f19601f820116820180604052508101906105c29190611150565b90505f3411806105d157505f81115b61060b5760405162461bcd60e51b815260206004820152600b60248201526a1a5b9d985b1a5908189a5960aa1b6044820152606401610348565b8015153415150361065e5760405162461bcd60e51b815260206004820152601860248201527f6f6e6c79206f6e65206f6620455448206f7220746f6b656e00000000000000006044820152606401610348565b5f82600301541161069f5760405162461bcd60e51b815260206004820152600b60248201526a1b9bdd081cdd185c9d195960aa1b6044820152606401610348565b815460ff16156106c15760405162461bcd60e51b8152600401610348906110eb565b816006015482600301546106d5919061111e565b42106106f35760405162461bcd60e51b8152600401610348906110eb565b60048201546001600160a01b0316156107465760088201545f84815260016020908152604080832060048701546001600160a01b031684529091528120805490919061074090849061111e565b90915550505b5f8034156107fd575f8581526002602090815260408083203384529091528120549250829003610795575f858152600260209081526040808320338452909152902060019081905591506107d6565b816001146107d65760405162461bcd60e51b815260206004820152600e60248201526d1a5b9d985b1a59081b595d1a1bd960921b6044820152606401610348565b5f6107e083610edc565b90506107ee34601283610f86565b34600887015591506109dd9050565b5f831161083e5760405162461bcd60e51b815260206004820152600f60248201526e1a5b9d985b1a59081c185e5b595b9d608a1b6044820152606401610348565b5f8581526002602090815260408083203384529091528120549250829003610883575f85815260026020818152604080842033855290915290912081905591506108c4565b816002146108c45760405162461bcd60e51b815260206004820152600e60248201526d1a5b9d985b1a59081b595d1a1bd960921b6044820152606401610348565b5f6108ce83610edc565b90505f856007015f9054906101000a90046001600160a01b03166001600160a01b031663313ce5676040518163ffffffff1660e01b8152600401602060405180830381865afa158015610923573d5f5f3e3d5ffd5b505050506040513d601f19601f820116820180604052508101906109479190611167565b9050610957858260ff1684610f86565b6008870186905560078701546040516323b872dd60e01b8152336004820152306024820152604481018890529194506001600160a01b0316906323b872dd906064016020604051808303815f875af11580156109b5573d5f5f3e3d5ffd5b505050506040513d601f19601f820116820180604052508101906109d99190611131565b5050505b80846005015410610a285760405162461bcd60e51b8152602060048201526015602482015274696e76616c6964207374617274696e67507269636560581b6044820152606401610348565b80846009015410610a705760405162461bcd60e51b81526020600482015260126024820152711a5b9d985b1a59081a1a59da195cdd109a5960721b6044820152606401610348565b6004840180546001600160a01b031916339081179091556009850182905560408051348152602081018590527f19421268847f42dd61705778018ddfc43bcdce8517e7a630acb12f122c709481910160405180910390a25050505050565b5f546001600160a01b03163314610b135760405162461bcd60e51b81526020600482015260096024820152683737ba1030b236b4b760b91b6044820152606401610348565b6001600160a01b038416610b575760405162461bcd60e51b815260206004820152600b60248201526a1a5b9d985b1a59081b999d60aa1b6044820152606401610348565b601e821015610b9b5760405162461bcd60e51b815260206004820152601060248201526f34b73b30b634b210323ab930ba34b7b760811b6044820152606401610348565b6001600160a01b038116610be95760405162461bcd60e51b815260206004820152601560248201527434b73b30b634b2103830bcb6b2b73a103a37b5b2b760591b6044820152606401610348565b6040518061016001604052805f15158152602001856001600160a01b03168152602001868152602001876001600160a01b031681526020014281526020015f6001600160a01b03168152602001846305f5e100610c469190611187565b815260208082018590526001600160a01b038481166040808501919091525f60608086018290526080958601829052600380548352600480875284842089518154988b01516001600160a81b0319909916901515610100600160a81b031916176101009888168902178155948901516001860155918801516002850180546001600160a01b0319908116928816929092179055968801518482015560a0880151918401805488169286169290921790915560c0870151600584015560e0870151600684015593860151600783018054909616931692909217909355610120840151600884015561014090930151600990920191909155805491610d488361119e565b91905055507fb5949404365a99702891e7d343a17849cef9b8b7bdb7773922e333f46de188a7600354604051610d8091815260200190565b60405180910390a1505050505050565b5f610d99610fb5565b805490915060ff600160401b820416159067ffffffffffffffff165f81158015610dc05750825b90505f8267ffffffffffffffff166001148015610ddc5750303b155b905081158015610dea575080155b15610e085760405163f92ee8a960e01b815260040160405180910390fd5b845467ffffffffffffffff191660011785558315610e3257845460ff60401b1916600160401b1785555b6001600160a01b038616610e785760405162461bcd60e51b815260206004820152600d60248201526c34b73b30b634b21030b236b4b760991b6044820152606401610348565b5f80546001600160a01b0319166001600160a01b0388161790558315610ed457845460ff60401b19168555604051600181527fc7f505b2f371ae2175ee4913f4499e1f2633a7b5936321eed1cdaeb6115181d290602001610d80565b505050505050565b5f5f82600103610f01575073694aa1769357215de4fac081bf1f309adc325306610f18565b5073a2f78ab2355fe2f984d808b5cee7fd0a93d5270e5b5f816001600160a01b031663feaf968c6040518163ffffffff1660e01b815260040160a060405180830381865afa158015610f55573d5f5f3e3d5ffd5b505050506040513d601f19601f82011682018060405250810190610f7991906111cf565b5091979650505050505050565b5f80610f9384600a611300565b90505f81610fa18588611187565b610fab919061130b565b9695505050505050565b5f807ff0c57e16840df040f15088dc2f81fe391c3923bec73e23a9662efc9c229c6a005b92915050565b5f60208284031215610fef575f5ffd5b5035919050565b602081525f82518060208401528060208501604085015e5f604082850101526040601f19601f83011684010191505092915050565b80356001600160a01b0381168114611041575f5ffd5b919050565b5f5f60408385031215611057575f5ffd5b823591506110676020840161102b565b90509250929050565b5f5f5f5f5f5f60c08789031215611085575f5ffd5b61108e8761102b565b9550602087013594506110a36040880161102b565b935060608701359250608087013591506110bf60a0880161102b565b90509295509295509295565b5f602082840312156110db575f5ffd5b6110e48261102b565b9392505050565b602080825260059082015264195b99195960da1b604082015260600190565b634e487b7160e01b5f52601160045260245ffd5b80820180821115610fd957610fd961110a565b5f60208284031215611141575f5ffd5b815180151581146110e4575f5ffd5b5f60208284031215611160575f5ffd5b5051919050565b5f60208284031215611177575f5ffd5b815160ff811681146110e4575f5ffd5b8082028115828204841417610fd957610fd961110a565b5f600182016111af576111af61110a565b5060010190565b805169ffffffffffffffffffff81168114611041575f5ffd5b5f5f5f5f5f60a086880312156111e3575f5ffd5b6111ec866111b6565b60208701516040880151606089015192975090955093509150611211608087016111b6565b90509295509295909350565b6001815b60018411156112585780850481111561123c5761123c61110a565b600184161561124a57908102905b60019390931c928002611221565b935093915050565b5f8261126e57506001610fd9565b8161127a57505f610fd9565b8160018114611290576002811461129a576112b6565b6001915050610fd9565b60ff8411156112ab576112ab61110a565b50506001821b610fd9565b5060208310610133831016604e8410600b84101617156112d9575081810a610fd9565b6112e55f19848461121d565b805f19048211156112f8576112f861110a565b029392505050565b5f6110e48383611260565b5f8261132557634e487b7160e01b5f52601260045260245ffd5b50049056fea2646970667358221220d6ee33956e2f276ed1156c0634e9cfc9bb5b4ec527601841aaf90ddebe63023264736f6c634300081c0033",
  "linkReferences": {},
  "deployedLinkReferences": {},
  "immutableReferences": {},
  "inputSourceName": "project/contracts/MetaNFTAuction.sol",
  "buildInfoId": "solc-0_8_28-191fcc2b7b158bd729ac071c53aedd182d65db34"
}